:1000000046C0BDC15FC05EC05DC05CC05BC05AC0C1
:1000100059C058C057C056C055C054C053C009023B
:100020001900010100802509040000010000000002
:100030000705810308000A12011001FF000008C033
:1000400016DF050001010200011203750073006252
:1000500000520065006C00610079001803640069BB
:1000600000670069002D006C00650064002E0070C0
:10007000006C00040309040600FF0901A10115003A
:1000800026FF00750895010900B20201C000112485
:100090001FBECFE5D1E0DEBFCDBF10E0A0E6B0E0EF
:1000A000E8E2F7E002C005900D92A236B107D9F759
:1000B00010E0A2E6B0E001C01D92AB39B107E1F754
:1000C00016D330C39DCFCF93C62F2091700024FF4D
:1000D00007C02091710038E823272093710003C0E6
:1000E0002AE5209370002C2FFC01A2E7B0E081915B
:1000F0008D9321501216DCF382E790E06C2F28D10B
:10010000CC5FC0937000CF910895CF93DF9380911F
:100110008100835087FD96C020917E0090917D00E4
:100120009D3209F08DC0883009F08AC08CE090E0E3
:10013000821B9109EC01CB57DF4F23EC2093650024
:100140002AE520936000109262002881207619F041
:10015000CE0173D26CC03A8110926E0029812223A5
:1001600031F410926F002EE630E082E05CC0253062
:1001700019F43093820054C02630E1F5FC01E957B0
:10018000FF4F208188579F4FFC018081813019F4F7
:1001900087E390E024C0823041F48EE190E09093B8
:1001A000800080937F0089E121C08330F1F4222315
:1001B00041F483E790E09093800080937F0084E097
:1001C00015C0213041F48BE590E09093800080933E
:1001D0007F0088E10BC0223041F489E490E09093E5
:1001E000800080937F0082E101C080E090E49093E2
:1001F00062001DC0283069F0293019F43093840062
:100200000FC02A3049F02B3059F48BE480937100F1
:1002100007C024E830E002C02EE630E081E003C0F1
:100220002EE630E080E03093800020937F009F81B5
:10023000992321F49E81981708F4892F80936100F7
:10024000109281008091600084FF45C08091610020
:100250008F3F09F440C0C82F893008F0C8E08C1BDC
:10026000809361008091650098E8892780936500FC
:10027000CC2329F180917F00909180002091620031
:1002800026FF0AC0FC012C2FA6E6B0E034913D9376
:1002900031962150D9F708C0DC012C2FE6E6F0E0BA
:1002A0003D9131932150E1F72C2F215030E02F5F09
:1002B0003F4F280F391F3093800020937F0086E640
:1002C00090E06C2F45D0CC5FCC3019F08FEF80934D
:1002D0006100C093600084E196B3967031F4815060
:1002E000D9F71092820010927C00C1E08111C0E029
:1002F000809163008C1739F0CC2319F4F894BED1A7
:100300007894C0936300DF91CF91089585B78260A0
:1003100085BF8BB780648BBF8BE4809371008AE5C7
:10032000809370000895A82FB92F80E090E041E0FD
:1003300050EA609530E009C02D9182279795879506
:1003400010F084279527305EC8F36F5FA8F30895F7
:10035000EADF8D939D930895A6E088279927AA95B3
:1003600069F00197E1F3B199FCCFB19BFECF81E039
:100370009927A6B3019611F0A670D9F70895CF93E7
:10038000CFB7CF93C395B19BE9F7B19B0BC0B19B9E
:1003900009C0B19B07C0B19B05C0B19B03C0B19B15
:1003A00001C0D5C00F92DF93C0917E00DD27CB57EF
:1003B000DF4F012EB19B03C0DF910F90E6CF2F934B
:1003C0000F931F934F932FEF4F6F06B301FB20F94D
:1003D0005F933F9350E03BE065C016B30126502980
:1003E00051FDC89556B3012701FB25F92F7306B3BC
:1003F000B1F05027102711FB26F906B22230F0F099
:1004000000C016B3012701FB27F90126502906B2C7
:100410002430E8F54F77206816B30000F6CF502758
:100420004F7D206206B2102F000000C006B30026E8
:100430005029102711FB26F906B2E2CF4F7B06B3F5
:10044000206400C0DACF01265029167006B269F187
:100450004E7F2160012F16B328C0002650294D7F02
:1004600006B22260102F29C0012650294B7F06B208
:100470002460012F2DC016B301265029477F286024
:10048000000006B22EC04F7E06B3206130C0422766
:1004900006B3499300265029102706B24FEF11FBEF
:1004A00020F9297F16B379F2167059F101265029E7
:1004B00006B2012701FB21F9237F06B371F2002662
:1004C00050293150D0F006B2102711FB22F9277EB7
:1004D00016B351F201265029012701FB06B223F978
:1004E0002F7C49F2000006B3102711FB24F90026E7
:1004F000502906B22F7939F270CF10E41ABF0027C5
:1005000019C03B503195C31BD04010E41ABF08817D
:10051000033C09F10B34F9F020917C001981110F93
:100520001213EDCF4A81441F093651F10D3211F0FB
:10053000013E29F7009383003F915F914F911F91F6
:100540000F912F91DF910F90CAB7C6FD1BCFCF91AE
:10055000CFBFCF91189520918300222369F310918A
:100560008100112379F534307AF1309381002093A2
:100570007D0010917E003BE0311B30937E0024C053
:10058000009181000130F4F40AE54F7049F4309194
:10059000600034FD1AC000936000C5E6D0E019C0C9
:1005A0003091700034FD11C000937000C1E7D0E0BD
:1005B00010C0052710E000C021C0052710E0C89535
:1005C00008BB14C03AE501C032ED032EC0E0D0E014
:1005D00032E017B31660C19A08B317BB56E020E8A3
:1005E0004FEF20FF052708BB279517951C3F28F7DD
:1005F00000004552B0F720FF0527279508BB179547
:100600001C3FB8F629913A9561F7097F1091820055
:10061000110F08BBC250D04011F010937C0010E4C1
:100620001ABF026017B3197F402F497F54E05A95D3
:10063000F1F708BB17BB48BB7FCFFC0180818076F8
:100640008034C1F48181813039F4828180FF02C01D
:10065000C09A10C0C0980EC0823071F488B3817007
:100660008093640084E690E09093800080937F0004
:1006700081E0089580E0089580E00895FF920F934F
:100680001F93CF93DF93C8E0D0E0FF2400E81F2D35
:10069000100F11BF61DE29E0843392070CF4F12EB4
:1006A00006952197A1F72F2D215021BF8C01CF2D29
:1006B000D0E0219610C050DE8453994097FF03C0CC
:1006C000909581959F4F8017910714F4F1B68C0196
:1006D00081B78F5F81BF81B790E0C817D9075CF7FA
:1006E000F1BEDF91CF911F910F91FF9008952EE001
:1006F00088E190E00FB6F894A89581BD0FBE21BDAA
:1007000005DEB99A40E02AE330E204C0A895C901A9
:100710000197F1F74150D1F7B998B89A7894A89514
:08072000F4DCFDCFF894FFCFDB
:020728005AFF76
:00000001FF
